:020000041000EA
:1000000000B5324B212058609868022188439860DF
:10001000D860186158612E4B002199600221596106
:100020000121F02299502B49196001219960352056
:1000300000F044F80222904214D00621196600F024
:1000400034F8196E01211966002018661A6600F04E
:100050002CF8196E196E196E052000F02FF8012189
:100060000842F9D1002199601B49196000215960AB
:100070001A491B48016001219960EB211966A021F2
:10008000196600F012F800219960164914480160C1
:100090000121996001BC002800D000471248134993
:1000A000086003C880F30888084703B5996A0420EC
:1000B0000142FBD001200142F8D103BD02B5186610
:1000C0001866FFF7F2FF186E186E02BD00000240BE
:1000D000000000180000070000035F00212200005C
:1000E000F4000018222000A00001001008ED00E03C
:1000F00000000000000000000000000074B24E7A12
:1001000000200420F7010010CB010010CD010010E9
:10011000C9010010C9010010C9010010C901001077
:10012000C9010010C9010010C9010010CF01001061
:10013000C9010010C9010010D1010010D301001045
:10014000C1010010C1010010C1010010C101001067
:10015000C1010010C1010010C1010010C101001057
:10016000C1010010C1010010C1010010C101001047
:10017000C1010010C1010010C1010010C101001037
:10018000C1010010C1010010C1010010C101001027
:10019000C1010010C1010010C1010010C101001017
:1001A000C1010010C1010010C1010010C101001007
:1001B000C1010010C1010010C1010010C1010010F7
:1001C000EFF30580103800BE00BE00BE00BE00BECA
:1001D00000BE00BEF2EB88710C1C0510281C051037
:1001E0003802001090A31AE71E481F49086006C88D
:1001F00081F3088810471D480068002801D019487D
:10020000F3E70DA40ECC002902D000F012F8F9E7B4
:100210001749184A002000E001C19142FCD116495B
:100220008847164988471649884700BEFDE701C937
:1002300001C29A42FBD37047281C0510E000002041
:10024000201800206833051000000420000004205E
:100250006833051000100420001004200000000086
:10026000704700000000000008ED00E0000000D032
:10027000201800202CEA002005470010590B001020
:10028000FD460010F8B5C04606480749091A8B100C
:10029000C90FC91810B5491003D0044B002B00D06A
:1002A000984710BD201800202018002000000000F2
:1002B000054B10B5002B03D00449054800E000BFF2
:1002C000FFF7E2FF10BDC04600000000E8A10020DB
:1002D0001C76011010B50C002000044907F03EF90F
:1002E0002000002107F036F9002010BDC50A0010DB
:1002F00070B505000C00002806D02000002107F092
:1003000029F9280002F0EEFD200007F079FD002019
:1003100070BDC04670B5037804000D00412B05D1B7
:100320004278002A02D10A70012070BD422B07D00A
:10033000582B0BD16278002A08D1563B2B70F3E77B
:100340006278002AF4D1413B2B70EDE7592B07D09E
:100350004C2B09D16278002A06D1483B2B70E3E789
:100360006278002AE9D0F3E7522B05D16278002A9F
:1003700002D14D3B2B70D7E722785A2A0DD16178F4
:100380004C291AD05A2A08D16278522A05D1A2786B
:10039000002A02D107232B70C6E72B2B05D16278E8
:1003A000002A02D1233B2B70BEE72D2B0BD16378A3
:1003B000002B08D109332B70B6E7A1780029E1D1D1
:1003C00006232B70B0E72000094916F05FFE0028D5
:1003D0000AD02000074916F059FE03000020002B28
:1003E000A3D10B332B709FE70A232B709CE7C046E9
:1003F0002076011028760110F0B5DE464E464546BF
:100400005746E0B50D001600C44C1189A544040000
:10041000280006F087FD0023C14A4AA9300006F0F3
:100420009DFA6A4600232932FF321354300006F049
:1004300023F9BC4A4A9B934228D0BA4A4A9991422E
:1004400040D0B8494A9A8A424AD0B7498A4200D134
:100450007BE0B54A934200D1C6E06327B34E002C3F
:1004600022D001233A00310028002660A78009F03D
:1004700071FC00285ED128000AF03AFDAC4B9D4487
:10048000F0BCBB46B246A946A046F0BDA94A4B996E
:100490009142D2D16A463132FF321278672ACCD1EA
:1004A0005727A54E002CDCD10821012002F006FDC3
:1004B00001000400280007F04DF828009F4907F0CC
:1004C0005BF8CEE79E4A4B999142BAD169463131E9
:1004D000FF319C4A09889142B3D158279A4EBEE712
:1004E0009A494B988842B0D168463130FF309849DC
:1004F00000888842A9D169463331FF3109787329D0
:10050000A3D1944B944A1B681268934262DA9B1AF7
:100510008033924A92491278924E0978D31800910A
:10052000914A8021300004F091F8300016F0F6FD79
:1005300087B294E7200002F0D5FC2800002107F0E4
:1005400009F8280007F05CFC98E7884A4B9991422B
:1005500000D07EE769463131FF31854A09889142F2
:1005600000D076E76A463332FF321278742A00D020
:100570006FE77F2677480268511CCB175B0EC918BE
:100580003140C91A744B1B6899422AD053009B18FA
:10059000784A9B009B1800221A7096325A60873A5C
:1005A0001A8101600122744B1A7001F0B5FD00231D
:1005B000724A734E8018594102000B1E02DA012262
:1005C000704B5242012100200CC655270FF042FC0F
:1005D0006D4E44E79B1A9CE7300016F09FFD002803
:1005E0003BD15F27694E3AE7694B4B9A9A4200D05C
:1005F00033E76B463133FF331B78642B00D02CE795
:1006000064494AA816F05CFC0028EAD0031D0AAE33
:10061000FF22190030009A4616F082FAFF230022CA
:10062000F2543378002B00D125E25B4F0CE0300010
:1006300016F074FD29236B4402001900300016F0F7
:10064000B7F93378002BC7D00822FB5C1A42EED1F1
:10065000300016F063FD002811D0272308226B44D8
:10066000944605E00022414601380A70002806D071
:1006700061461A1890461A5CBA5C1142F2D133787E
:10068000002BAED000230393444B3000190003AA83
:10069000984616F0ABFA81460028A2D0404916F0E1
:1006A000F5FC002800D1FCE048463E4916F0EEFC7F
:1006B000002800D126E148463B4916F0E7FC002817
:1006C00000D18EE14846394916F0E0FC002800D000
:1006D00057E1002399464146002003AA16F086FA06
:1006E000CB4681460028F6D15B46002B00D178E747
:1006F0000A220021180016F02DF98346002800D1A7
:100700006FE7FF225146300016F00AFAFF234A46EF
:10071000F2543378002B58D15BE0C046D4FBFFFF86
:10072000FF02000047455420504F5354BC9D011018
:100730002C0400002F70696E649D0110F1020010FE
:100740002F72656164790000089D01102F73746138
:100750007475000014A8002010A80020F8190020CB
:1007600021EA002044E8002054760110202F726511
:100770007365000010A2002020EA0020C0D4010010
:10078000E8190020FFFFFF7FB09C0110509C011072
:10079000202F636DC8760110091B0510D07601105B
:1007A000D8760110E0760110E87601100C77011080
:1007B000300016F0B3FC29236B440200190030000E
:1007C00016F0F6F83378002B03D00822FB5C1A42AF
:1007D000EED1300016F0A2FC272308226B44944689
:1007E000002806D10CE00022494601380A70002892
:1007F00006D061461A1891461A5CBA5C1142F2D1D1
:1008000000274146300003AA039716F0EFF9A14BE9
:10081000B9469A461EE04146002003AA16F0E6F9C2
:10082000071E1ED0300007A9FFF774FD002800D175
:10083000D7E66B461B7F0B2B05D852465B009B5AB5
:100840004A461A439146380016F068FCC043039BA1
:100850001B1803934146002003AA16F0C7F9061E91
:10086000D9D14B46002B00D1BBE68B4B8B4A186885
:10087000411C114004D580220139524211430131FB
:10088000874A1268914200D1ABE60C224243854868
:1008900012180020107058465060484610811960A8
:1008A00080E6414603AA16F0A1F9002800D198E697
:1008B0000A22002116F04EF807AE070000210C2294
:1008C000300002F01BFB022304AA337013000897C8
:1008D00083CE83C37F20704E3768791CCB175B0EA5
:1008E000C9180140CB1A9C466D4B1B689C4500D132
:1008F00077E6733878436B4B1B1883CA83C3634610
:1009000033604FE6414603AA16F070F9414603AA48
:100910008046002016F06AF907004046002800D102
:100920005FE6002F00D15CE607AE3100FFF7F2FC76
:10093000002800D155E60A220021380016F00AF8F6
:10094000337800260B2B02D8524A5B009E5A524B3A
:10095000524A1F68791C114004D580220139524245
:10096000114301314E4A1268914200D139E60C22FE
:100970007A434C4F1960D2190027506017701681C6
:1009800010E64846484916F081FB002800D028E6CA
:10099000414603AA16F02AF9002800D121E643496E
:1009A00016F074FB002800D01BE63B4B3B4A18684E
:1009B000411C114004D580220139524211430131BA
:1009C000374A1268914200D10BE60C224243354867
:1009D000121800201070963050608738108119600E
:1009E000E0E5414603AA16F001F94146070003AAD3
:1009F000002016F0FBF88046002F00D1F1E500281A
:100A000000D1EEE538002A4916F040FB00283AD024
:100A10003800284916F03AFB002838D0380026491B
:100A200016F034FB002830D03800244916F02EFB95
:100A30000326002800D0D4E50A220021404615F004
:100A400089FF154B154A1F68791C114004D5802277
:100A50000139524211430131114A1268914200D1C9
:100A6000BFE50C227A430F4F1960D219012750605D
:100A70001770167296E5300016F050FB104F0028E4
:100A800000D0EAE5ADE50600D6E70226D4E7012668
:100A9000D2E7C046389C011014A800207F000080D7
:100AA00010A8002010A20020147701101C7701105C
:100AB000F0760110F4760110FC7601100477011035
:100AC000091B051010B50C00002A03D0FFF794FC99
:100AD000002010BD002801D002F004FA20000021FF
:100AE00006F038FD200007F08BF9F1E77F2016496A
:100AF000F0B50C68631CDA17520E9B1803409B1A62
:100B0000124A1668B3421ED07827620012190024D8
:100B10000F4D920052195760BC46683F17815F1C09
:100B20001470FA17520EBF1838400B60801AB0428A
:100B300009D05A00D31862469B005B195A60583A94
:100B40001C701A810860F0BD14A8002010A80020B5
:100B500010A200207047C046F0B5DE464546574615
:100B60004E46E0B58DB003F0DFFE904B984642460E
:100B70008F4B13608F4B53600FF07CF9002804D02B
:100B8000FA20800001F0B8F9FAE70FF00BF98A4972
:100B90008A488B4B8B4A0FF013F9002804D0FA20B7
:100BA000400001F0A9F9FAE70121874B19700FF015
:100BB00051F913F0FBFD2E2006F04EFF041E0DD060
:100BC0008249834A06F09EF8002800D0E9E004211B
:100BD000200006F01DF97F4906F0DCFC13F0F0FD63
:100BE0000021080015F080F9002701F095FA7A4EEF
:100BF00036184F41002F02DA0126784F7642784BA3
:100C0000009601979946774B774C9A46774B049319
:100C1000774B9B46774B05934346039336E0237E01
:100C2000002B79D001F078FA22696369121A8B419E
:100C3000002B00DC90E05B461B78002B77D101F0A5
:100C40006BFA009A019B121A8B41002B1BDC00D11E
:100C500092E0002014F082FF002805D00823002134
:100C60000020039A14F096FF01F056FA00275A4E1E
:100C700036184F4100960197002F04DA0122574B96
:100C8000524200920193012001F036F90120002127
:100C9000404214F0FDF92378002BC0D14B461A686E
:100CA00053461B689A42C6D0530004999B189B0078
:100CB000CB1806A961CB61C17F230132D117490E40
:100CC000521813404A465B1A136009AB06AA23CA9E
:100CD00023C3079B984601232370231D23CA23C3E4
:100CE00001F01AFAFA2205000E0000239200404695
:100CF000002102F093F82A003300801859410200C5
:100D00000B1E02DA0122354B524263610023237627
:100D100023782261002B8ED0012323762379002BA8
:100D20002ED10399A2890B8813430B807AE701F037
:100D3000F3F9059B0CCB121A8B41002B00DD7EE7EB
:100D400002D1002A00D07AE700235A460021002071
:100D500013700FF07FF872E7002B02D1002A00D049
:100D600069E72379002B16D10399A2890B88934355
:100D70000B80002323705EE7002A00D169E782E739
:100D8000012B00D04EE7227B0733032A00D8530003
:100D9000039A937046E7012BEBD10822039B9A70CC
:100DA000E7E7200007F02CF818E7C046EC2F0020FA
:100DB00000000880808080002877011034770110BF
:100DC000204E00000400400021EA002050A4011041
:100DD000901F0000D502001088130000FFFFFF7F66
:100DE00010A8002014A80020F819002010A200204C
:100DF00020EA0020E819002000487047689E011092
:100E000010B56A46148900212200180002F076F815
:100E1000200010BD7047C04600487047549E011026
:100E200000487047309E011070B5002826D0022877
:100E30002FD8194B8000C458200016F06FF9C3B2A8
:100E4000181C1F2B18D8C021C0B2421CD2B25200AD
:100E5000890011430D00002B18D0104B9C469A1CA2
:100E60000023E15C01331180D9B202328842F8D804
:100E7000634660461D8070BD1F20E4E7074B9C461B
:100E80006246074B9D1F5380FF3DF1E7034B9C4695
:100E9000EEE70020EFE7C046209E0110E01C002096
:100EA0000904000010B54024074A83009A1812680C
:100EB000C0005440C0222240044C1B191A60044B4D
:100EC000C018416010BDC04604C0014004D00140BC
:100ED00000400140064B8000C3181B68C900920007
:100EE0000A435A400C231340024A8018036070479B
:100EF00004C0014004D001408000002904D0054B0B
:100F0000C018022303607047034BC018022303601C
:100F1000F9E7C04604E0014004F00140D0231B067D
:100F20001B6810B514005A4253412F225B42934371
:100F30000D4A9B18C2089446072210406246800062
:100F400081403C32094892001150604680001B18D5
:100F5000002C04D0802292019B18196010BDC02281
:100F600092019B181960F9E73041014000400140AF
:100F7000F0B5D026C646360633680C4D9B00904629
:100F8000EA5804000F0000B5104209D1390014439B
:100F90000D204246EC5000F08BF980BCB846F0BD05
:100FA00001F068FA33689B00EA58EFE734E8002064
:100FB00010B504000D2000F061FAD0231B061B6859
:100FC00002499B005A58A2435A5010BD34E80020F1
:100FD0000123D0228340120693629361084A830062
:100FE0009A1811684022514080320A400549C000D9
:100FF0005B181A60044BC018052343607047C04655
:1010000004C0014004D00140004001408023DB05C2
:101010001868000F7047C0460FB400B5084883B089
:1010200003F0CEFC049B002B07D005A9180001910A
:1010300003F030FB034803F0C3FC012003F042FB44
:101040005C770110AC9A0110EFF3108072B6034A7E
:101050001368002BFCD0BFF35F8F70472C0100D0CA
:10106000BFF35F8F0022024B1A6080F31088704735
:101070002C0100D070B58C461600EFF3108472B6C8
:101080000F490B68002BFCD0BFF35F8F6346DB0872
:10109000C5180722C05C63461A40012393401A001A
:1010A0000240034207D118432870BFF35F8F0A60E4
:1010B00084F3108870BD61463000FFF7ADFFC04675
:1010C0002C0100D0F8B5CE4647468C4680B51C00B2
:1010D000EFF3108872B61C490B68002BFCD0BFF3ED
:1010E0005F8FA24221D80723994602E00132944241
:1010F00018D34946012611408E40D308C718C35C57
:101100001E42F3D1100033433B70BFF35F8F0022C8
:101110000D4B1A6088F3108800280EDBC0BCB9465E
:10112000B046F8BD01204042EFE7BFF35F8F0023D8
:101130000B6088F31088012040426346002BEDD0FD
:101140000898FFF769FFC0462C0100D010B584460F
:101150000A00EFF3108472B60B490B68002BFCD029
:10116000BFF35F8F0723D008134001229A406346E4
:101170001B5C934362461354BFF35F8F00230B60E5
:1011800084F3108810BDC0462C0100D0044A1078AA
:10119000431CDBB2172B00D9102313707047C046D5
:1011A000F810002000B5054B83B001000093182211
:1011B0001F230348FFF786FF03B000BD6C770110C3
:1011C0003C2100200021044B044ABFF35F8F02C37F
:1011D0009342FAD17047C046000100D0800100D090
:1011E000084B094A1360094A1360094A1360094A07
:1011F0001360094A1360094A1360094A1360094AD7
:10120000136070478080808000E400E004E400E028
:1012100008E400E00CE400E010E400E014E400E086
:1012200018E400E01CE400E01F2318401E3B83404C
:10123000002905D0C021044A49005350136070476B
:10124000802201498B50FAE700E100E0012383404E
:10125000014A13607047C04600E200E070B50D001F
:10126000EFF3108672B60F4A1368002BFCD0BFF361
:101270005F8F0D4B10309B6884001B590B4A9342C3
:1012800003D09D4201D001F0F5F8074B9B681D513A
:10129000BFF35F8FBFF35F8F0022024B1A6086F3AC
:1012A000108870BD240100D000ED00E0C1010010E5
:1012B000F0B5DE4657464E464546E0B5824683B019
:1012C0008B461700EFF3108872B6604A1368002B44
:1012D000FCD0BFF35F8F00255D4B5D579946002D15
:1012E00000DA9AE04A466B005A4C5E19B600019348
:1012F000A31900939B791370574B9A685346103388
:101300009B00D15899460B1B2F2B32D9534B994236
:1013100000D098E0019B0236ED18514BAD006353AD
:10132000504BA619043B9B1B4F4A1B055B0D6519CF
:1013300013436B804D4B0121AB80FF23AB715B46A8
:10134000AB60009BEF710B4319004A46424B9B6810
:101350009950BFF35F8FBFF35F8F00223B4B1A6042
:1013600088F3108803B0F0BCBB46B246A946A0463D
:10137000F0BD01200A008243D379B446BB422DD888
:101380003B4BB51C190013001B1B5B415943090D56
:101390008C46334B6519A353324B0099043B5B1BBE
:1013A0001B05314D5B0D2B4304364B80A619131FD3
:1013B0009B1B1B055B0D1D4363468B715B468B605E
:1013C0002C4B8D80CF7113600143BEE75800C018CD
:1013D00080002018C679BE4225D902000623D356C4
:1013E000002BF3DA9A46131D9C4623486346009E61
:1013F0009571043EF61A36051B4B760D1E43019B74
:1014000096805A1953469200A418A3715B46194A54
:10141000A0802260E771A36097E701F02BF8002518
:101420004B465D575EE766469A46131D9C4690887C
:10143000043640050015A6196044801B00050A4EBD
:10144000400D3043D2E701F015F863E7240100D0E6
:1014500022EA0020FC10002000ED00E0C101001095
:1014600000A1FFFF2C11002000E0FFFF01BDFFFFE6
:10147000AAAA00000148804701BD0000F0B545461A
:10148000DE4657464E46E0B50D0083B0EFF31088B8
:1014900072B6604A1368002BFCD0BFF35F8F5E4BBF
:1014A0005E499A68030010339F00D45999468C42D4
:1014B0003ED0AC424FD05A4EA21B2F2A38D8594B9F
:1014C0001A689C4613000122824013401F220240EA
:1014D00001209A4690406346802283469850BFF38D
:1014E0005F8FEFF305830193002B36D0994501D030
:1014F00000F0C0FF012322009A439068854208D182
:1015000076E04B005B189B00F3189868854236D054
:101510001A00062151560029F3DA854254D0534669
:10152000002B27D0C02259463E4B520099501960DB
:10153000394B9B68DC51BFF35F8FBFF35F8F002295
:10154000344B1A6088F3108803B0F0BCBB46B24637
:10155000A946A046F0BD0C00EAE7220001339A43F9
:1015600090688542D5D106201056130000280ADA6B
:101570000C0031E0802359462A4AD150D8E7062092
:101580001856002821DB4200111889007518894679
:10159000A9689960E979D97106216956997100297C
:1015A00024DBAD88F11A6D052D154D444919090547
:1015B0001D4D490D2943998013181C4A9B00117831
:1015C000F31899711070AAE713000199002914D13A
:1015D000FF3191711649918014490A789A71154A20
:1015E0009B1B5B415A43120D0A7098E71049E2E7D2
:1015F0000620105613000028C5DA0F4A0F49D21AE8
:10160000083A5002400D014399800D4952080A439F
:10161000DA8084E7240100D000ED00E0C101001071
:10162000FC10002000E100E000E0FFFF22EA0020C3
:1016300001BDFFFFAAAA00003611002000F0FFFF45
:1016400000F8FFFF084A83089B009B181A6810B532
:10165000140003221040C000FC3282409443220058
:1016600081400A431A6010BD00E400E001230343F7
:1016700070B59C46EFF30581EFF3108572B6214AF1
:101680001368002BFCD0BFF35F8F1F4B04001F4A71
:10169000E41A64416243120D1D4C8900A66852B2DF
:1016A000765866451CD00621595691421CD012210D
:1016B0005956914222D01E215956914220D02A21BA
:1016C00059560324914210D0124B19781A70817127
:1016D000BFF35F8F00220B4B1A6085F3108870BD3B
:1016E000A3680D4C5C50EFE70024610009198900E4
:1016F0005B18FF21997109499980E5E70124F4E716
:101700000224F2E7240100D0FC100020AAAA000065
:1017100000ED00E022EA0020C101001001BDFFFF42
:101720001F2110B5091A0248FFF710FD10BDC04671
:101730002AEA002000B5074B83B001000093002285
:1017400005230548FFF7BEFC002801DB1F23181AFC
:1017500003B000BD887701102AEA002070B50400AC
:101760000E001500FFF712FD0100200000F006F842
:10177000A680E580BFF35F8F70BDC046024BC918DD
:10178000890001607047C0464000003470B5114CBC
:10179000114DAC420FD2FF262368002B0CD0FFF76F
:1017A000F5FC01002000FFF7E9FFA680BFF35F8F83
:1017B0000834AC42F0D370BDFFF7E8FC0100200014
:1017C000FFF7DCFF2671BFF35F8F0834AC42E3D331
:1017D000F1E7C046181800202018002010B50400BA
:1017E000FFF7D4FC01002000FFF7C8FFFF2323719F
:1017F000BFF35F8F10BDC04610B50400FFF7C6FCF5
:1018000001002000FFF7BAFFFF23A380BFF35F8F23
:1018100010BDC04610B504000120FFF7C3FC034B08
:10182000C01880002060BFF35F8F10BD40000034FF
:101830000A4B1968EFF3108072B60A68002AFCD0D0
:10184000BFF35F8F1B68BFF35F8F00221A6080F3C6
:10185000108840BF002000217047C046D4E9002016
:10186000F0B5DE4657464E464546E0B585B0EFF347
:10187000058303221A40B34B91005F580123934024
:101880009B4602925A468846AF4B1A60AF4B039371
:101890005B46AF4843630823FE5E002E37DABB8801
:1018A0001BB2002B00DBA4E0BB79002B00D0E5E0ED
:1018B0000823F95E002920DB4B007A695B18DB0006
:1018C000D3189D68DC686B1C00D104E1A0480100BE
:1018D0004144826A0B69AE1A9B1A9E4215D30123BA
:1018E000026A029883401A420FD0994800F00CFC1B
:1018F0008C4202DCCCD18542CAD940BF05B0F0BCD5
:10190000BB46B246A946A046F0BD0D61EDE77A6937
:10191000730091469B19DB0099444B469C68DD6837
:1019200000F0F2FB8D42BADC00D1F6E0002D00DAC7
:10193000DBE04A464B4652691B699246039A934242
:1019400000D1CCE04A460821785E52880004514616
:1019500010439847009001910099019A0B0013439E
:1019600000D1C2E013000A00002B00DBD9E0200008
:101970002900801A99414B469860D96000229B5EED
:10198000002B00DA8BE75D007C69EA18D200A21810
:1019900000949468D268A2468A4200DD7FE702D1B3
:1019A000844200D97BE70824A4463B81BC44009CC8
:1019B00000972F006546B4463E0006E05E00F21830
:1019C000D200A2189768D268BA468A4207DC00D1D2
:1019D000B4E0F318DB00E518E35E002BEEDA6646B0
:1019E0004A46009F13802E80BB881BB2002B00DA72
:1019F0005AE73A69EFF3108172B61368002BFCD0F6
:101A0000BFF35F8F0123BE885B42BB8036B23B6968
:101A1000BFF35F8F00221A6081F31088002E00DA76
:101A200042E73B0008333A0099467D6973009B19F1
:101A30000824115FDB004846EB18002913DB9C6883
:101A40000093A446DC6806E0A34240D00023F95E80
:101A50003800002906DB4F007F18FF00EF19FB68F4
:101A6000A342F1DD009B068000201E5E1980002E3F
:101A7000DCDA1700BB79002B00D119E70023BB711A
:101A80000823F95E4B1C00D137E73D000835AC4612
:101A90007C6903E084464B1C00D109E74B005B18CE
:101AA000DB00E0180A00E15E43881BB2002BF1DA8C
:101AB00001256D42EE178560C66008257B5F934265
:101AC000E9D0634619803B8903803A81E3E7BB682C
:101AD0006345BBD9C6E7631C00D0F7E605E753466C
:101AE00050461B699847002823D14B461B883A690A
:101AF0003B81EFF3108372B611680029FCD0BFF36D
:101B00005F8F49467A880A803A697E80BFF35F8F8B
:101B10000021116083F31088C1E6844200D805E7F4
:101B2000BDE60B4800F0F0FA009B019CC018614133
:101B300021E753460CCB009201930DE7824500D874
:101B400047E74CE700A200203C70054061180010F8
:101B50000040054070B52D4C2569002D04D00A21A8
:101B60002B48FFF70BFE70BD2A4E0321294800F0D9
:101B7000C1FAE660FFF70AFB274B0322C018D02307
:101B800022701B061B6801216370244B8000A36038
:101B90000F2320610220638063694942A18019807C
:101BA0000231198647311D83585218315A52753205
:101BB0005C399952183201319952183201319952D7
:101BC000183201319952083518329D5202311832BB
:101BD0009952183201319952183201319952183202
:101BE000013199521832013199521832013199520A
:101BF0000B4B0C49DC6001303562FFF72FFB0121F4
:101C00000320FFF711FB084B1D60A8E744110020DB
:101C1000D4E900200040054040000034FFFF1000E0
:101C200000A200206118001038600540004870478D
:101C300044110020F8B51F0008AB1B780400160003
:101C4000002B07D100F068FA32003B00121A8B41DA
:101C5000002B51DB2269EFF3108C72B61368002B56
:101C6000FCD0BFF35F8F0223E15E256900293ADBD8
:101C70004B0060695B18DB00C218C35A6380BFF376
:101C80005F8F00232B608CF31088069B9660D760D3
:101C90001361079B5361538801335B045B0C181C71
:101CA000002B1ED083B25080080418432569EFF33F
:101CB000108672B62B68002BFCD0BFF35F8FA38811
:101CC0001380A1802369BFF35F8F00221A6086F31F
:101CD0001088237801329A400849E3685B181A603B
:101CE000F8BD0120DEE7BFF35F8F00232B608CF38C
:101CF000108801204042F3E70020F1E73C2000007B
:101D000070B582B00092019301000269EFF3108474
:101D100072B61368002BFCD0BFF35F8F0223C85E3E
:101D20000D6900283FDB4A69430016001B18DB00E1
:101D3000D218F35A4B80BFF35F8F00232B6084F3DC
:101D40001088069B1361079B5361009B019C936065
:101D5000D460538801335B045B0C1D1C002B20D026
:101D6000ACB20304558023430D69EFF3108C72B6B7
:101D70002C68002CFCD0BFF35F8F8C881480888087
:101D80000A69BFF35F8F002010608CF310880A7817
:101D900001309040CA68084952181060180002B01B
:101DA00070BD0125DCE7BFF35F8F00232B6084F358
:101DB0001088013BF2E7C0463C20000010B5438983
:101DC0000A1493421ADD53009B184269DB00D318B2
:101DD0000469EFF3108C72B62268002AFCD0BFF3BE
:101DE0005F8F5A88090494B2090C8A4208D00369AB
:101DF000BFF35F8F00221A608CF31088002010BDA3
:101E0000094A22435A80012302698371BFF35F8F1D
:101E1000002111608CF31088027804499340C26855
:101E2000012052181360EAE70080FFFF3C20000009
:101E3000F0B506000F0006246442E517A4197D41A1
:101E400083B08D4212D80FD000F066F922002B002B
:101E5000121A8B41002B13DC002B41D030003900CB
:101E600000F064F903B0F0BD8442EDD900240025F0
:101E700000F052F922002B00121A8B41002BEBDDEF
:101E800000F04AF922002B00121A8B41002B0ADBCA
:101E900000230193144B2200009314482B00FFF7FA
:101EA0002FFF0130DAD02900114A1248536A9942B3
:101EB00004D8956AA542D1D29942CFD10568EFF3F3
:101EC000108C72B62B68002BFCD0BFF35F8F0368B9
:101ED000BFF35F8F00251D608CF3108820BFE5E7FE
:101EE000002ABBD0CCE7C0463118001044110020B6
:101EF00000400540D4E90020F0B5C64600B582B0E8
:101F0000040000F009F9FA2206000F002000002367
:101F10000021920000F082FF8019794104000D1E1B
:101F200002DA01242E4D644206267642F71736194E
:101F30006F41AF4214D811D000F0EEF832003B00F0
:101F4000121A8B41002B15DC002B46D020002900F3
:101F500000F0ECF802B080BCB846F0BDA642EBD968
:101F60000026002700F0D8F832003B00121A8B41FF
:101F7000002BE9DD00F0D0F832003B00121A8B4153
:101F8000002B0ADB00230193164B32000093164806
:101F90003B00FFF7B5FE0130D8D000233900B04632
:101FA0009C46124A1248536A994204D8966A46459A
:101FB000CCD29942CAD10668EFF3108772B6336863
:101FC000002BFCD0BFF35F8F0368BFF35F8F6646C3
:101FD0001E6087F3108820BFE5E7002AB6D0C9E766
:101FE000FFFFFF7F31180010441100200040054022
:101FF000D4E90020F0B5CE46474680B504000D0078
:1020000085B0EFF305868946002E10D036490020B2
:102010004B6AAB4206D38A6A5B1B591E8B41A242B4
:102020004041184305B0C0BCB946B046F0BD2F4F83
:10203000FB683A7898461800039200F065F8039A16
:10204000131D42469B009B5822001B1A9C462B00E6
:10205000121A8B419E4210DC0DD020BF224A002074
:10206000536A4B45DED3926A5B1B591E8B41A242D9
:1020700040411843D6E79445EFD900F04DF82200CF
:102080002B00121A8B41002B1BDB00230193184BF2
:102090002200009338002B00FFF732FE002810DDED
:1020A000114B5A6A4A451CD39B6AA34217D30100BD
:1020B0003800FFF783FE0C4A0020536A4B45B1D32A
:1020C000D1E7094A0020536A4B45ABD30020926AFE
:1020D0005B1BA24240415A1E93411843A2E74A4566
:1020E000E5D120BFE3E7C046004005404411002091
:1020F0003118001010B5024A0248FEF7BBFF10BDB0
:10210000A4770110402100200300416A0A00986A68
:10211000596A8A42FAD17047034B596A0A00986A91
:10212000596A9142FAD1704700400540064A536A05
:102130009942FCD807D1044B02E05A6A914202D17D
:102140009A6A9042F9D8704700400540F8B5DE46DB
:102150004E4645465746E0B505008B4618000A999D
:10216000914600F0E1FA0A9B6C001E026419304BA4
:10217000A400E418636880469E4200D966602F1F61
:10218000FBB29A46012B2FD9C0238022294FAD00E4
:102190009B0179591201E3181A6000291BD14B46A3
:1021A00022685B015340E022134080225201A218B2
:1021B00013605346012B2FD9802380229B01E31803
:1021C00012011A60434666607B51F0BCBB46B246C2
:1021D000A946A046F8BD786900F0A6FA0130430090
:1021E0001B18033BFDD2DAE75B46012BCCD1C023A1
:1021F00003229B01E3181A60023AA3681A42FCD03A
:102200004A46236852015A40E0231340802252017B
:10221000A218084F1360AD005846032321684140BF
:102220000B40136001228240A3681A42FCD0C3E72E
:102230000080004048210020F0B5D6464F46464673
:10224000440098462418324BA400E41863688A4678
:102250009146C0B5FF2B02D880235B006360061F48
:10226000F6B2012E2FD9C02380222A4F85009B0170
:1022700079591201E3181A6000291BD14B462268D4
:102280005B015340E022134080225201A2181360E8
:10229000012E30D9802380229B01E31812011A609D
:1022A00080235B00636043467B51E0BCBA46B14685
:1022B000A846F0BD786900F037FA013043001B18DA
:1022C000033BFDD2DAE75346012BCCD1C0230322D6
:1022D0009B01E3181A60023AA3681A42FCD04A46EE
:1022E000236852015A40E023134080225201A21871
:1022F000084F1360850050460323216841400B407E
:10230000136001228240A3681A42FCD0C2E7C04693
:102310000080004048210020014B8000C0587047D9
:1023200048210020F0B5C646040000B52348160039
:1023300098460D0000F0F8F90100300000F0F4F9C3
:102340004346069A1B04120313439C462368060067
:10235000002B22DB1A4B1B48E218531E9A418023A4
:102360005242120B9B011203D218174B1A60174BE3
:102370001A60130001688B43FBD12122144B2560A6
:10238000E318A6601A602268002AFCDA6246E2605E
:1023900008221A6080BCB846F0BD3F232268134073
:1023A000AB42D7D1A3681B051B0D8342D2D1EE22CD
:1023B000E368D20213406345CCD1EBE7001BB700C2
:1023C0000040FDBF08C0004000E0004000F00040B9
:1023D000043000008023024A9B000B43D362704705
:1023E00000800540002310B50100988A1B8B984798
:1023F00010BDC046162310B5010018885B889847A9
:1024000010BDC046F8B54746CE4680B50F1E18D061
:1024100014239946043304000025012698464B46B0
:102420001888434621681B88984701C4431E984179
:1024300001350640AF42F2D13000C0BCB946B046CB
:10244000F8BD0126F8E7C046AA23064A1B0113601F
:102450008D235B00D3600449044B19605368002B43
:10246000FCDA70470040024000B0FA000060024011
:102470007047C04610B50148FEF7CEFDC877011081
:1024800070B5074D074EB54209D20024013E761BB8
:10249000B608013608CD01349847B442FAD170BD70
:1024A000D875011014760110054B064A06491A60CA
:1024B000064A074B1A6010000B689843FBD170471F
:1024C00000E00040BFCDFBFE08C00040FE7F3C00A6
:1024D00000F00040044BDB6C002B03D18022034B47
:1024E000D2021A607047C046000011504C201150B3
:1024F000044A054B1A60054A1368DB018033FBD19F
:102500007047C046FFFFFF0100F0004008C00040D8
:102510004022034B9A675A671A67DA667047C046CB
:1025200000F0014010B5FEF74DFE10BD70B5284912
:10253000284D294E6D1AAC102200302C00D93022C3
:102540003000920000F0E0FCBC2D3DD823002A3B77
:10255000224A052B1DD9302075196D07A446001B92
:10256000EB0F002D03DA611C8C46A1007250C01ADB
:10257000E3189B004108F318C900C9181A605A6093
:1025800008339942FAD1012303421DD09843604495
:102590000400A300F250631C2F2C15D09B00F250B6
:1025A000A31C2E2C10D09B00F250E31C2D2C0BD022
:1025B0009B00F250231D2C2C06D09B00F250631D73
:1025C0002B2C01D09B00F250054B9E6070BDC04685
:1025D00000010010C001001000000020C101001027
:1025E00000ED00E0002310B5294C82B0A367FFF78F
:1025F0002BFF0122274B1A60636C012BFCD10322B5
:10260000254B1A60224A936B012BFCD101330093B6
:102610000121224A22480433FFF784FE05230121C9
:102620000093204A2048FFF77DFE0022022104206B
:102630001E4BFFF701FE0022012105201C4BFFF776
:10264000FBFD0022002107201A4BFFF7F5FD0022B9
:1026500000210820174BFFF7EFFD8023DB000093DC
:10266000002200210920134BFFF770FD0022104BC0
:1026700000210620FFF7E0FD0420FFF74DFE0E4984
:1026800000F052F801000020FFF7A4FE02B010BDD8
:10269000008000403CB0004030B00040002F68593E
:1026A00000800240008C864700C00240001BB7003B
:1026B00040597307006CDC0240420F0001480421BE
:1026C000014B18476011002005240010014B9B6846
:1026D0001847000060110020124A936F9B0815D222
:1026E0009066D166002905D0FFE7FFE7FFE7516F4D
:1026F000106F704704B580210906C21751400028A9
:1027000000D0C84314F018FF002104BDF0B5146ECA
:10271000556E576F166FFFF7E3FF146655665767E0
:102720001667F0BD000000D0114A936F9B0813D2CA
:1027300010665166002905D0FFE7FFE7FFE7516FFC
:10274000106F704704B5002801D00020C04314F07A
:10275000F3FE002104BDC046F0B5146E556E576FF0
:10276000166FFFF7E5FF1466556657671667F0BDED
:10277000000000D094464A4A926F9208624601D205
:1027800028E0C046F0B5464E346E756E776F366FF2
:1027900000F020F89446424A14665566576716675B
:1027A0006246F0BD94463E4A926F9208624601D25C
:1027B00054E0C046F0B53A4E346E756E776F366FA2
:1027C00000F04CF89446364A14665566576716670B
:1027D0006246F0BD002B24DB11D000293EDA00B5A3
:1027E000C943404200D1013100F038F8C9434042AA
:1027F00000D10131DB43524200D1013300BD002A38
:10280000EBD1002801D1002905D00020C90FC9074C
:1028100001D1C043410800B514F07EFE0022002320
:1028200000BD00B500290ADBDB43524200D1013371
:1028300000F014F8C943404200D1013100BDC94342
:10284000404200D10131DB43524200D1013300F05C
:1028500005F8DB43524200D1013300BD002923D1EA
:10286000002B18D1002A0CD0BC460D4F38667A6672
:1028700000210023FFE7FFE7FFE77A6F386F674625
:102880007047002801D00748010000B514F044FE4D
:102890000022002300BD02000B0000200021704731
:1028A000000000D0FFFFFFFF002B00D0BFE0130CA3
:1028B00028D1002AE7D080B4114F39667A66FFE745
:1028C000FFE730B4040C7B6F396F1B0423433B6676
:1028D0007A66FFE7FFE7FFE7C04684B27B6F3D6F94
:1028E0001B0423433B667A66FFE7FFE7C0460023ED
:1028F0002C042D0C7A6F386F00196941B0BC7047F9
:10290000000000D0F0B594460025140E01D112024B
:102910000835140F01D112010435940F01D1920032
:102920000235D40F01D152000135D40B0134254FAB
:102930007C66254C3C660E0C93B2FFE7FFE7FFE791
:102940003C6F6643360C7703BE467343DF0B5B0474
:10295000C01AB941130C7343DB18C91ACE08664379
:10296000360CB64493B273431F0F1B01C01AB94112
:10297000130C73431F0B1B05C01AB941860D8F0240
:102980003E436643360C092D24DB520A7243801AFB
:102990007703460A6643360C16235B1BDE40DF4096
:1029A000BF1964466643821B704604350633010036
:1029B000D940A840C01900D30131A24206D2002359
:1029C000F0BD0000000000D0FFFFFFFF121B013030
:1029D000F3D3F1E709277F1BFE406446A2B272439E
:1029E000801A00D20139220C7243130C1204821A8D
:1029F00099410B007046043513370100F940A84097
:102A0000801900D30131002B02D1A2420AD2F0BDBD
:102A1000013000D30131121BFAD2013BF8D1A2429E
:102A200000D2F0BD013000D30131121BF7E7F0B541
:102A30001C0C00D080E00CB400251C0A04D11B0241
:102A4000160E3343120208351C0B04D11B01160F5E
:102A50003343120104359C0B04D19B00960F334382
:102A600092000235DC0B02D192185B4101351C004B
:102A7000971864410134464F7C66464C3C660E0C08
:102A8000FFE7FFE7FFE7C0463C6F6643360C77037E
:102A9000BE4697B27743C01B00D20139C01B00D29B
:102AA00001399FB27743C91BC91B170C77437E04BA
:102AB000FF0B801BB941CE086643360C0C2D33DB6F
:102AC000B644120B1F053A431B0B97B27743C01B4A
:102AD00000D201399FB27743C91B170C77433E04DC
:102AE0003F0C801BB941860D8F023E436643292768
:102AF0007F1BFE400C3D7746AF40BF1930BCA2B2F1
:102B0000ABB272437343801A9941220C7243130C87
:102B10001204801A994102000B000137001BA941E1
:102B2000F9D2781E0021F0BD0C277F1BFE407746AE
:102B30007F0BAF40FF19E0E700245D1C07D0144F66
:102B40007D663966FFE7FFE7FFE7FFE73C6F95B279
:102B50009EB265436643401BB141150C1E0C654394
:102B6000664336042F0C3E432D04401BB14199426D
:102B700004D202000B0020000021F0BD01D19042E0
:102B8000F7D3801A994101349942F2D3F6E7000055
:102B9000000000D0FFFFFFFF48404140484018B40C
:102BA000134B5B68019308BD18B4114B1B6801936C
:102BB00008BD94460F4A926F920805D2624618B437
:102BC0000B4BDB68019308BD0A4AF0B5146E556ED5
:102BD000576F166F6246FFF7F2FF064A1466556696
:102BE00057671667F0BD18B4014B9B68019308BD89
:102BF000181A0020000000D0FFB55040424050405D
:102C000059404B40594000E0FFB5154F4C00640D52
:102C100003D0BC4204D10C0314D80020090D0905CF
:102C20005C00640D03D0BC4204D11C030AD800220E
:102C30001B0D1B0501264B4009D44B4003D58B428D
:102C400000D18242FFBD9942FCD19042FFBD0B43AF
:102C5000DB1803431343F5D0C9434918FFBD0000F7
:102C6000FF07000000B5FFF7CFFF804100BDC04661
:102C700000B5FFF7C9FF01D9002000BD012000BD4C
:102C800000B5FFF7B9FF01D9002000BD012000BD4C
:102C900000B5FFF7B1FF804100BD012040054A00AB
:102CA000121804D85A00121801D8002070470120C9
:102CB000704700000021002805D17047C117484027
:102CC000401AFAD0C90713B5064B1B6898470CBCCD
:102CD000441CA2401005120B0349091B09051943A6
:102CE000114310BDD0E800201F04000010B54C00B7
:102CF000620D8023D218DB00D21A5B057E2A10DD1C
:102D00009E3A13DACC170903490819435242D140BD
:102D1000640001341532202A05DAD04008436043AC
:102D200010BD002010BD0846604310BDC80FC0187C
:102D3000013810BD18B4024B5B6A019308BD000056
:102D4000181A002010B50148FEF766F9D477011073
:102D5000132370B51D78012D19D014DD1D48FFF720
:102D600049FB06001C48FFF745FB1C4C8022310044
:102D7000200000F0C9F8022D06D01948FFF732FBF9
:102D8000184B186070BD154C174BA364F5E7174B33
:102D9000124C23606360A360E36023616361A361FD
:102DA000E36123626362A362E36223636363A363F9
:102DB000E36323646364A364E36423656365A365D9
:102DC000E36523666366A366E36623676367A367B9
:102DD000E367D9E75344000053460000181A002067
:102DE0004C330000D0E80020F12D0010452D0010DC
:102DF00007B5604601880A0A0230DF2AFAD1C9B253
:102E0000820804D3028840880004104300E0006870
:102E1000014A5050039007BD181A00205143434304
:102E2000C9188C46110C83B24B4310B4040C614397
:102E300092B280B2504362431C041B0C001910BCB8
:102E400059411304120CC0185141614470470000ED
:102E500010B50148FEF7E0F8D4760110132310B541
:102E60001C781148FFF7C6FA012C0BD004DD0100D5
:102E700080220E4800F048F80D48FFF7B3FA0D4BDA
:102E8000186010BD094C01005422200000F03CF8ED
:102E900022002000084980320368002B00D1016025
:102EA00004309042F8D1E7E753460000D4E8002010
:102EB0004C330000D0E80020512E001070B5050002
:102EC0000C0013F073F9002805D06C43034B041970
:102ED0009C4200D870BD0248FEF79EF80000042016
:102EE000EC77011010B513F0C7F910BD01480421AB
:102EF000014B18477011002005240010014B1B687E
:102F00001847000070110020014B5B681847000053
:102F1000701100209A4200D2885470477047C04612
:102F2000F8B5DE4657464E464546E0B599460D9BF8
:102F30000700884693469B0728D00B9B002B3CD06C
:102F400016000B9C0A9D3619321B013C4B4641462C
:102F5000285DB847002CF7D135000D9B9B070ED597
:102F60005B46EC1A0C9BA34209D91E002A004B4673
:102F7000414620200134B8470135B442F6D3280039
:102F8000F0BCBB46B246A946A046F8BD0B9B0C9AC6
:102F9000934214D213005D460C000B9A9E1A7619C8
:102FA0002A004B46013521002020B847B542F7D111
:102FB0000B9BA046002BC4D1E1E71500CDE75E4690
:102FC000002BBED15D46DAE7F0B54F46D646464601
:102FD000C0B584B09C460EAB1F78129B9146BA4692
:102FE0000D9C109E119D9B074CD4002D41D1B442E5
:102FF00048D20123129F1F40B8460C9B5F1E30230E
:1030000003E001343B55A64201D9202CF9D14346B7
:10301000002B00D187E00C9B5F1E3023A54204D813
:1030200030E001343B55AC422CD0202CF9D1129B1E
:10303000DB060DD5129B5B0557D4A64267D0A5428F
:1030400065D00F9B102B53D0022B5BD0202C36D198
:103050002023129C01930C9B4A46009303946346E1
:103060000295FFF75DFF04B0E0BCBA46B146A84642
:10307000F0BD0123129A13409846012313422DD12B
:10308000B442BAD3129BDB061ED5129B5B05D8D483
:10309000002CD2D10F9B102B60D00F9B022B71D034
:1030A000302301240C9A13705346002B11D1129B2C
:1030B0005B0740D52B260C9A631C1655C9E72300E5
:1030C000013430260C9AD654202CC1D05346002B04
:1030D000EDD02D260C9A631C1655BAE7002F34D07C
:1030E000013DB44200D288E795E70F9B102BAFD18A
:1030F000129B9B063CD5202CAAD058230C9A135522
:103100000134A3E7202CA3D02300013407E0631E81
:10311000012CBFD00F9A102A36D0022AD1D16226B4
:103120000C9AD65492E7129BDB06CDD5129B5B0519
:1031300000D482E785E7129A2300160700D488E7B7
:1031400020260C9A0133165583E70C2313405F1E8B
:10315000BB41ED1AB44200D24FE75CE7129B9B06DD
:103160000ED478230C9A02241370302353709BE7FB
:10317000202C00D16CE778230C9A1355013465E7B5
:103180005823EFE76033EDE70C9AA61EB618129AA3
:10319000920602D55822327093E77822327090E777
:1031A00010B5002800D110BD01F0C0FBFBE7C04600
:1031B00010B5002803D04A680B681100984710BD6D
:1031C000F0B54E46DE4657464546E0B595B08346D7
:1031D0008946924698461E9A1F9B10001900209E11
:1031E000FFF75BFD002800D0D2E11E981F99012255
:1031F000C44B5242FFF736FD002800D001E11E9873
:103200001F990122C04B5242FFF742FD002800D017
:10321000D6E01E981F990022BC4BFFF739FD00280D
:1032200000D0B5E01E981F990022B94BFFF71AFD98
:10323000002800D0ACE01E981F9900220023FFF761
:1032400011FD002800D0D1E000230B93229B5B05E9
:1032500000D406260024302306E006AA01341732E3
:103260001355013E202C01D0092EF6D81E981F9927
:10327000FFF73CFDA74BF2009B180CCB0500089212
:103280000993FFF71BFD02000B001E981F99FFF723
:1032900086FC089A099BFFF7A6FC06900791FFF7AA
:1032A00049FD0700FFF706FD02000B00069807998D
:1032B000FFF775FC0022984B06900791FFF7E8FC9A
:1032C000002800D1E9E001373800FFF7F3FC0200E5
:1032D0000B0008980999FFF7CBFC002801D00027C4
:1032E0000135002E00D1B7E0069513E0172306AA9A
:1032F0009B180A21380001341D19FFF715FA3031E7
:10330000297038000A21013EFFF70EFA092F00D874
:10331000E1E00700202CE9D1069D20240CAB0693A8
:10332000172706ABFF180DE028000A21FFF7D4F994
:1033300001343031280039550A21FFF7CDF9051E37
:1033400000D1B7E0202CEFD10323229A1340012BA8
:1033500017D1219B002B14D00B9B002B00D1E3E055
:10336000219B013B2193202B0BD93023219A06E08E
:1033700006A9013417310B55944200D3A0E0202C4C
:10338000F6D1229B01940393219B0293069B21E09B
:10339000229B52460493219B4946039358461E9B09
:1033A0001F9C029600930194434600F043F90400E9
:1033B000200015B0F0BCBB46B246A946A046F0BD01
:1033C000229B5B070FD40322544B22990192039155
:1033D0002199029100935246434649465846FFF7C9
:1033E0009FFD0400E4E704224D4BEEE71E9A1F9B6D
:1033F00000200021FFF7D3FB01231E901F910B93A8
:1034000024E70223229A54461A40229B06929B07E5
:1034100000D1ACE02600434D08942F1F3200E8781D
:1034200043464946013DD8470136BD42F6D1089C86
:10343000069B0434002BBBD05746219AE31B9A42CB
:10344000B6D9150022004346494620200134D8470A
:10345000E31BAB42F6D3ABE72800FFF72FFC0200DB
:103460000B001E981F99FFF79AFB2B4B00220600BA
:103470000F00FFF7F7FB0CAB0693002800D04FE7D7
:10348000002230003900244BFFF702FC002800D056
:1034900046E7012301359D4342E70022069807993C
:1034A0001D4BFFF7DFFB002800D01AE7002F59D192
:1034B000013716E70323229A1340012B00D1A6E01F
:1034C000202C00D15DE70B9B002B3AD02D23069AD0
:1034D0001355013455E7069D202C00D11DE73023FC
:1034E000361906E006AA013417321355202C00D1F4
:1034F00013E7A642F6D12E230CAA01340692935567
:103500000EE7C046FFFFEFFFFFFFEF7F65CDCD4128
:1035100065CDCDC1B8A001100000E03F4C7801108E
:1035200044780110547801100C23229A134257D08A
:10353000219B013B2193A34200D916E7202C00D107
:103540001FE7229B5B0704D52B23069A13550134F2
:1035500017E7229B1B0700D413E72023069A135575
:1035600001340EE7FB0700D4BBE60137B9E6219B27
:10357000042B00D84EE755464F46043CE4182A0079
:103580004346013539002020D847AC42F7D141E706
:103590000227229B55461F409B0726D006975F4671
:1035A000234EEC1C2A00B078434649460135B84703
:1035B000013EAC42F6D1069F002F00D1F8E65746F7
:1035C000219AE31B9A4200D8F2E6150022004346F6
:1035D000494620200134D847E31BAB42F6D3E7E647
:1035E000219BA34200D9C0E6CBE6219B032BD5D972
:1035F000069754464F46033DED18220043460134DA
:1036000039002020D847A542F7D1069FC6E7219B65
:10361000002B00D154E70B9B002B85D0219B013B55
:1036200021939C4200D2A0E6202C00D04EE7A8E6D1
:1036300050780110F0B54546DE4657464E46E0B597
:103640009BB0249C259D824688469346994622003D
:103650002B0020002900FFF720FB002800D0C1E04C
:103660000122200029007C4B5242FFF711FB002869
:1036700000D0B7E0012220002900784B5242FFF72A
:10368000F1FA002800D0ADE000220023200029003C
:10369000FFF7E8FA002800D0BBE1089409950898E4
:1036A00009998023289ADB001A400F928022289ED5
:1036B0001201164032000E96289E0F000A901E42FC
:1036C00000D0A4E00B00034300D0CBE0002A00D0E0
:1036D00012E2320006332693022313400C93022396
:1036E000134200D00AE2279B042B00D215E20027E8
:1036F0000426043B0E930022002320002900FFF73C
:10370000B1FA002800D0C8E1554B289A1340049321
:103710000E9B0393269B0293089B099C00930194A4
:1037200041464B465A465046FFF74AFD02002020CC
:10373000289B0025034059424B415B421840531CD3
:10374000089341464B464530D047FB17FC185C4078
:10375000FB0F1F270A93731E0E930AABFF1806E098
:1037600020000A21FEF7E0FF0400202D08D00A21E6
:103770002000FEF7D9FF013530317955092CEFD8FB
:10378000052306930E9B56460593002304930A33A4
:1037900003930A9B4146029312AB009330004B46C1
:1037A000089A0195FFF710FC0C9B002B28D05F4670
:1037B000279BC41BA34223D982461D003A194B46BE
:1037C000414620200134B047A542F7D8504659461B
:1037D000279C421A01320023944200D395E1013024
:1037E00018180DE0289B009401950493279B0393E0
:1037F000269B02934B465A4641465046FFF7E0FC53
:103800001BB0F0BCBB46B246A946A046F0BD014382
:103810002AD10E9B3200002B00D15DE70027269BAA
:103820000026BB4200DD82E10022002320002900A7
:10383000FFF718FA002800D04BE1289B084A0296AF
:103840001A408023DB0013430493279B0393089BB8
:10385000099C00930194CDE7FFFFEF7FFFFFEFFF8F
:10386000FFF7FFFF06232693B24B7800400DC018E8
:10387000FFF724FAB04AB14BFFF7B5F9B04AB14BA4
:10388000FFF792F93F03B04B3F0B3B430C900D9178
:1038900000220A981900AD4BFFF781F9AC4AAD4BF5
:1038A000FFF7A1F902000B000C980D99FFF77CF9C6
:1038B000FFF71CFA0700FFF701FAA74AA74B0A9087
:1038C0000B91FFF790F90022A54BFFF76DF9FFF779
:1038D0000DFAA44A06000A980B99A34BFFF783F947
:1038E0000A900B913000FFF7E9F9A04AA04BFFF7CF
:1038F0007AF902000B000A980B99FFF750F90200C1
:103900000B000A900B91FFF76EF90C900D910A983D
:103910000B9902000B00FFF747F90022109011915C
:103920000C980D99934BFFF744F90022924BFFF747
:103930003BF902000B000C980D99FFF73AF90022B1
:103940008E4BFFF731F902000B000C980D99FFF731
:1039500030F90A9A0B9B0C900D9180210020C9052B
:10396000FFF71DF902000B000C980D99FFF71CF9E9
:1039700002000B0010981199FFF71BF90022724BFF
:10398000FFF712F97E4B0022F6183305FFF72BF9EB
:1039900002000B000A900B9108980999FFF762F951
:1039A000002808D00A980B990022734BFFF701F901
:1039B0000A900B91013F0A990B9A0B0011003A00F3
:1039C0006332C62A12D802222898042610400E9A82
:1039D0000C90002A26D1279B042B05D9002800D063
:1039E000A1E0279B043B0E93042642E00222289884
:1039F00010400E9A0C90002A13D1279B052B00D85B
:103A000089E0002800D084E0279B0526053B0E9323
:103A100032E080231B069C46AC446346089409931D
:103A20003DE605260B4300D1F9E608980999554A69
:103A3000554BFFF725F9002808D00898099900226E
:103A4000524BFFF70FF9002800D0E8E6269B002B29
:103A500034D00F9B002B31D0269B013B2693279B14
:103A6000B34204D90C9B002B59D002230C930023A2
:103A70000E93002F00D13EE60A9A0B9B08980999F5
:103A8000FFF797F8002208900991002320002900F1
:103A9000FFF7E8F8002800D136E6089C099D289A2F
:103AA00080203B4B00061340220004930E9B03939F
:103AB000269B02932B180092019331E6279BB34279
:103AC000D5D90C9B002B2AD000230E9302330C93E4
:103AD000CFE7289B2E4A8020089C099D1A4080230E
:103AE000DB00134322000493279B000603932B184B
:103AF0000092019302967DE6052695E600230E933B
:103B00000233002704260C93F5E54B1E1B191B1AE4
:103B100065E602230C930526AEE70423E7E5279B21
:103B20009B1B0E93A5E7022304260C93A1E7DB1B46
:103B30005E1E79E601FCFFFFFB799F501344D33FE3
:103B4000B3C8608B288AC63F0000F03F0000F83FF2
:103B500061436F63A787D23F71A379094F930A40EE
:103B60000000E03F1655B5BBB16B0240EF39FAFEDD
:103B7000422EE63F00002C40000024400000184088
:103B8000FF0300002D431CEBE2361A3F80842E41D8
:103B9000FFF7FFFFF0B55746DE464E464546E0B517
:103BA000A3B01F002C9B92460C93C94AC94B8B466D
:103BB0000B901A60002900D1BFE1002338789946A4
:103BC000002800D1C1E1C44B4C460993C34B0E936E
:103BD0005B460A9308E0220053460A990B9DA847CA
:103BE00001343878002876D001372528F3D1102306
:103BF0009B46083B9946043B9846033B002602251A
:103C00009C463878791C0300203BDBB2102B03D88C
:103C1000099A9B00D3589F460300303B092B36D9A5
:103C200000252A2800D1A7E000230D932E283FD09D
:103C30000300683BDBB2122B1BD80E9A9B00D358B3
:103C40009F4663460F001E43DBE70F002E43D8E775
:103C500043460F001E43D4E75B460F001E43D0E7E8
:103C60004B460F001E43CCE7802378785B001E4351
:103C700001310F00672845D82428ACD90300253B23
:103C8000DBB2422BA7D896499B00CB589F46002514
:103C9000AB005D196D002D1808780F000300303B54
:103CA000303D0131092BF3D900230D932E28BFD1CC
:103CB0003022802052429046C000064378780B00A4
:103CC00080444246092A00D851E12A2800D15EE109
:103CD0000F000131ACE70A9BA1469B46CA4503D8B9
:103CE00001235B425344994653464A4659460020B5
:103CF0000B9DA847200023B0F0BCBB46B246A946A6
:103D0000A046F0BD0300693BDBB20F2B00D962E790
:103D1000012199408846734A11408B461100424662
:103D20000A4200D013E10A2B2FD0072B00D052E714
:103D30000C9D01CD002800D134E121231E43B04663
:103D40001F260D9A12ABF618A14694465946340028
:103D500002E0000920290AD00F260640320037323F
:103D6000092E00D8073A013162540F28F1D8634672
:103D70004C468B460D9322E10C9B20CB002D52DB51
:103D800078780C930F0001314EE70C9B0D9904CB12
:103D900090469B46002900D128E1434618784144CB
:103DA000002801D100F029FC0D9A94460A0004E095
:103DB00059780133002900D195E19A42F8D1634640
:103DC0000D934346D31A0F93730500D46CE10F9BF8
:103DD0000D9A934200D90F9202231A0032400C929E
:103DE000334200D191E20C930D9BB9461E19434614
:103DF0001B1BA84622001F000B9D08E0541C5346C5
:103E00000A99A847385D002800D163E12200964254
:103E1000F4D145464F4634000C9B002B00D097E16F
:103E20005B460C93DDE60222787816430F006D4264
:103E30000C930131F8E678786C2800D159E18023A1
:103E40005B001E43013114E780239B0078781E43FA
:103E500001310EE77878682800D150E180230131E4
:103E60001E4306E7672800D1C2E0472800D134E1AD
:103E7000452800D134E107210C9B0D9A07338B4371
:103E800019000496039502920CC90B9800920193B5
:103E90000C91220053460A99FFF7CCFB0400A0E6E0
:103EA000462800D1A8E007210C9B0D9A07338B43CD
:103EB00019000496039502920CC90B980092019385
:103EC0000C91220053460A99FFF77AF9040088E61C
:103ED000953B0010243400201C9F0110609F0110AE
:103EE000AC9F0110419000002200534625200A9902
:103EF0000B9DA847013474E60C9B04339B46631C5E
:103F00009846B60700D4FFE00C9B220018780A9967
:103F100053460B9EB0476419012D00D849E245462F
:103F20000B9EB8460A9F2A005346013539002020CF
:103F3000B047A542F7D1474672E7DB4B38780B9381
:103F400000239946002800D03DE60024C6E66F28ED
:103F500055D000D8BCE21023782800D19EE09E43C3
:103F60000A239C4600230F930A339B464DE0002111
:103F70008A005218520001331118187830390200A3
:103F8000303A092AF4D90D911F00591C50E60C9BB8
:103F9000B87804CB0237D143C9170A400D920C936D
:103FA000791C45E6102330009843113318438023D1
:103FB00080463000DB0018401E4200D1C0E6434678
:103FC0000693082305930D9B22000493102303936B
:103FD000002302935B4601931AAB00930A99534660
:103FE0000B98FEF7F1FF0C950400FAE50139D4E6D1
:103FF00080231B011E433EE720231E4353E7082373
:104000009C4600230F9308339B4680233000DB003F
:1040100018401E4200D11AE10D233100994380233C
:104020000A009B001A409146194200D0C3E1802348
:104030000A005B001A4090460C9A04320F92194213
:1040400000D08FE24B0600D597E10B0600D4E5E2E5
:104050000C9B1B8899464B46002B00D005E2103381
:104060009943002800D100E2002398460D9B069159
:1040700004935B4603930023059502934346D9E0DE
:10408000582808D0622878D102239C4600230F9339
:1040900002339B46B9E720231E43103B9C46002376
:1040A0000F9310339B46B0E702231A0032400C9264
:1040B000334200D105E20C934346B9460B9E0A9F5A
:1040C000A8461D1B2200534639000134B047285D25
:1040D0000028F7D145464F469EE680231B011E432C
:1040E00020231E43C7E662460D9242469B1A0F9359
:1040F0006AE6C0239B00B8781E43F91CB9E5C023CB
:10410000B8781E43F91CB4E5012D00D84AE1631EBE
:104110009946A9444B4652462600A146BA461C0081
:104120001700A8460B9D32003B00013620200A995B
:10413000A847A642F7D13B0057469A464C460C9BEF
:10414000320018780A9953460B9D4444A84767E605
:10415000A0460F9B9D4200D862E62C190B9E454657
:10416000B8460A9FE41A2A00534601353900202038
:10417000B047A542F7D1474652E680233200DB0024
:104180001A4090461E4200D1F3E011218E43B446FE
:104190009846802362469B001A40934662461A4224
:1041A00059D180235B001A4091460C9A04320F9239
:1041B00062461A4200D0A0E163465B0600D5D4E017
:1041C00063461B0600D412E20C9B00229B5ED817AC
:1041D0001918414089B2DA0F0C92002B00D187E107
:1041E00088461F2612ABBB461495F71845464E4627
:1041F000E046A14606E028000A21FEF795FA0500F0
:10420000202E08D00A212800FEF78EFA0136303120
:10421000B955092DEFD84C46C446B1465F46149DAA
:10422000634606930D9B059504930A2303930C9B09
:1042300002934B4601931AAB220000930A9953460E
:104240000B98FEF7C1FE0F9B04000C93C9E40C23EE
:1042500031009943E3E60822072191460C9B07337E
:104260008B4399444A460ACB08000C92DA0F9346D6
:10427000184300D085E0002399464346002B2FD1F8
:10428000002200231092119300231F26994612AB9F
:10429000F6185B461495BB46E04637000F934E4632
:1042A000A146109C119D05E01D2F001004000D007B
:1042B000202E0CD00A22002320002900FEF772FADB
:1042C00001363032BA55002DF0D1092CEED80F9BB3
:1042D000109411955F464C46C446B1469B46149DCA
:1042E000634606930D9B059504930A2303935B464F
:1042F00002934B4601931AAB220000930A9953464E
:104300000B98FEF761FE04006BE40F9B9D4200D802
:1043100096E18023DB000C930F9B2E19F61A43467F
:104320000F930D9BA84699465346BA461F000B9D16
:1043300022003B00013420200A99A847B442F7D15B
:104340000F9B454698464B460D933B0057469A4671
:1043500043461878002800D162E56B1C0F930C9B34
:10436000002B00D1A8E600233DE50C9B1B7819002B
:1043700031E710239E43B4460BE70C9B1B7899460C
:1043800069E6DA17129213924A4010921298139922
:104390000A005A401192109A119B121A8B411092E6
:1043A000119371E70C9B220018780A9953460B9CD5
:1043B000A047444634E50822072690460C9B073365
:1043C000B343984442460C921A685B68149208936F
:1043D0001300089A134305D11033994300239846DC
:1043E000002838D161208B0600D5412000231F26EC
:1043F00098465A4612ABF618030018920F9A0A3BD9
:10440000B1461695179419974446664690469B46C2
:10441000149F089D159103E007000D00202C13D078
:104420003200002338002900FEF7BCF95B46D2B207
:10443000D318092A01D8130030334A4601341355E2
:10444000A845E9D1BE42E7D9189BA0469B461599DD
:10445000169D179C199F0D9B069104935B46039331
:10446000002305950293434644E761208B0600D55F
:1044700041201F2612ABF21803000A3B0C934B4657
:104480004646A146A8461C005D461491BB4617004F
:1044900002E00400202E0DD029002000FEF744F990
:1044A0000C9BCB18092901D80B0030330136BB55C2
:1044B000AC42EED25F464C46AB4614994546B046F8
:1044C000D4E50F9B9D4200D926E701330F93F3E516
:1044D000102332009A439446692800D0A2E080233A
:1044E0003200DB001A4090461E4200D151E64CE6F5
:1044F0004346002B00D093E673E60C9B1B68DA0F53
:10450000002B70D0D9175B184B4098461F2612AB72
:10451000F618A14614955C464546BB46E046370072
:104520000C9206E028000A21FEF7FEF80500202C78
:1045300008D00A212800FEF7F7F801343031395548
:10454000092DEFD85F46C446A3464C46149D0C9AED
:10455000634606930D9B059504930A2302920393E9
:104560005B4667E60C9B1B689846002B03D1103313
:10457000994300282DD161208B0600D541201F26AC
:1045800012ABF61803000A3B4A460C9314914346BB
:104590003100A846A1465E461400BB461D000F0030
:1045A00002E00500202C0DD031002800FEF7BCF8F9
:1045B0000C9BCB18092901D80B00303301343B5533
:1045C000B542EED223005F464C464546B346994677
:1045D00014990D9B069104935B4603930023059564
:1045E00002934B4626E64346002BB1D18EE70C9B47
:1045F0001B68D81719184140EDE580233200DB0015
:104600001A400F921E420FD00230020032400F9229
:10461000304219D00023A0460F939AE50C9B1B68EB
:10462000994618E516009BE402231A0032400C92CA
:10463000334200D08CE5002D00D06DE6FFF7F0FB93
:1046400001330F93FFF7D0FB0C93F4E784460CB4CF
:1046500000B585B006AB0A0002CB05480393009372
:104660000B006146FFF796FA05B008BC02B0184788
:10467000152F001000B585B0039101210290009321
:10468000034813004A4202A9FFF784FA05B000BDAF
:10469000B131001010B5094A0300146884B0002C31
:1046A00008D0012200910648524203A9A0470120E8
:1046B00004B010BD00F084F90020F9E72434002094
:1046C000A131001000BEFDE7094A1368002B06D097
:1046D00008491818884208D8106018007047064B1F
:1046E0000449181813608842F6D901235B42F4E7A5
:1046F000F42F0020000004202CEA002010B5FFF762
:10470000E1FFC04670B5FDF7BBFE074D074EB54251
:1047100009D20024013E761BB608013608CD0134CB
:104720009847B442FAD170BD147601101C7601107E
:10473000030010B5080011001B68984710BDC04663
:10474000F8B5437D07000D001600002B38D0002A75
:104750001ADD0B780A2B18D00020012E09D0012475
:1047600021006B5C01340A2B1AD0B442F8D1864286
:1047700003DD311A3B6828189847AD19013D2B78A5
:104780000D3B5A4253413B75F8BD037D002BE3D1ED
:1047900002210E483B689847012EEED00120DEE74B
:1047A0006B1E5B5C0D2BE0D0884203DA091A3B6874
:1047B00028189847054802213B6898472000D4E70D
:1047C0000368110028009847DEE7C04608A10110E1
:1047D000F0B5C6460B6807000D0000B5802B06D06B
:1047E0005A1C2A60ED182F7180BCB846F0BD0F4BE3
:1047F0001C68002C16D00B1D98460D4E02E0246953
:10480000002C0FD02368002BF9D03368002B01D087
:10481000A342F4D1200041462A68FFF791FF2469A2
:10482000002CEFD101220023DBE7C046DC2F002063
:10483000E82F0020F0B54646D6464F46C0B582B0B8
:1048400090461C0006000D00FDF766FC00232F4A71
:1048500012184B41002B02DA01222D4B52422D49F6
:1048600008008A4612F088FE81466B1C03D1300096
:1048700012F054FC0500002C27D0274F274B1C6852
:10488000002C18D04346002B21D1254B984602E03E
:104890002469002C0FD02368002BF9D043461B68F5
:1048A000002B01D09C42F3D120002A003100B847F0
:1048B0002469002CEFD14B46002B23D1280002B0F5
:1048C000E0BCBA46B146A846F0BD164FD6E7144B39
:1048D000984602E02469002CEDD02368002BF9D023
:1048E00043461B68002B01D0A342F3D12A003100BC
:1048F0002000B8476B460A222000DA71D91D093A18
:10490000B847E7E7504612F0F7FDD7E740420F00FF
:10491000FFFFFF7F1818002041470010DC2F002008
:10492000E82F00203147001000207047F0B5CE4638
:10493000474680B583B06B460600DD1D2870FDF745
:10494000EBFB0023194A12184B41002B02DA01221B
:10495000174B524217490800894612F00DFE164BBC
:1049600080461C68002C14D0144F02E02469002CEF
:104970000FD02368002BF9D03B68002B01D09C425C
:10498000F4D1200001222900FFF7DAFE2469002C6F
:10499000EFD14346002B05D1300003B0C0BCB9466F
:1049A000B046F0BD484612F0A7FDF5E740420F00C3
:1049B000FFFFFF7F18180020DC2F0020E82F0020C9
:1049C00070B5040012F0AAFB0123010005000122CA
:1049D0002000FFF72FFF084B1C68002C06D06368EF
:1049E000002B05D098472469002CF8D1280070BD11
:1049F0002469002CF3D1F9E7DC2F0020F0B5CE4676
:104A0000474680B5A3B004000E00FDF785FB0023E8
:104A1000264A12184B41002B02DA0122244B524243
:104A2000244812F0A9FD00232200019380463300A0
:104A3000214801A9FFF71EFE204F019B81463C68DB
:104A4000002B19D0002C2FD01D4E02E02469002C21
:104A50000FD02368002BF9D03368002B01D0A3427C
:104A6000F4D12000019A02A9FFF76AFE2469002C04
:104A7000EFD100233C680193002C06D06368002B23
:104A80000CD098472469002CF8D14346002B07D15D
:104A9000484623B0C0BCB946B046F0BD2469EBE738
:104AA000044812F029FDF3E70194EEE740420F00BD
:104AB000FFFFFF7F18180020D1470010DC2F0020D7
:104AC000E82F00200FB400B583B004A901C90191FB
:104AD000FFF794FF03B008BC04B0184710B506F008
:104AE000E9FE10BDF8B501230B72040006F016FFB5
:104AF0000500431C0AD10F4B03CB0F4B2268986073
:104B0000D9601900200052699047F8BDFDF704FBF9
:104B1000FA2206000F000023280000219200FEF771
:104B20007DF9801979410029E7DA012003494042E3
:104B3000E3E7C046C09E011080110020FFFFFF7F09
:104B400070B5094D04002B78002B08D001230749CC
:104B500020000B722368DB699847012070BD00F0CC
:104B6000E7FB01232B70F1E71DEA002098110020DC
:104B700010B50400036804499B6998472368200026
:104B800002491B6A984710BD80110020981100202F
:104B9000002070477047C04610B5FDF7BDFA0029E8
:104BA00005D0FA2200239200FDF7FCFD10BDFA218A
:104BB0008900FDF7B9FDF9E78368002B04D107E010
:104BC0001A68002A06D013008B42F9D1002005E0B4
:104BD000030008331960002301200B607047C046B2
:104BE0008368002B0BD0083003E018001B68002BF3
:104BF00005D08B42F9D11B680360012000E0002042
:104C00007047C0464368002B04D107E01A68002AA9
:104C100005D013008B42F9D1002004E0031D196078
:104C2000002301200B6070474368002B0BD0043039
:104C300003E018001B68002B05D08B42F9D11B68DC
:104C40000360012000E000207047C046F0B55746E1
:104C5000DE464E464546E0B53E4B83B018CB00934A
:104C6000019483688246002B2BD008235344984636
:104C7000FDF752FA53469B6804000D00002B20D02C
:104C8000002247461E0094469946B268F368200009
:104C90002900801A9941002902DB14001D00BC463E
:104CA00037003668002EF0D16246002A49D01168DC
:104CB00050460B6813604B68984753469B68002B1F
:104CC000D6D153465C68002C29D000255646237A5D
:104CD000002B32D021006368257230009847246889
:104CE000002CF4D1B368B246002B18D0009C019D73
:104CF0001E0003E004000D00002E0ED03300220041
:104D00009868D9682B00121A8B413668002BF1DCA9
:104D1000F2D1002AEED1002EF0D100940195009B33
:104D2000019C5246180021001361546103B0F0BC8D
:104D3000BB46B246A946A046F0BD2468002CC6D1A9
:104D4000D0E753465C68002CBFD1009C019D4E46C5
:104D5000D4E7C046C09E01100F4A104B10B5121880
:104D60004B419900900F0818990F504059400C4A38
:104D70000C4BFEF753F84A01C30ED318CA0E584025
:104D80005140094B094AFEF749F84A00C30FD318AE
:104D9000CA0F5840514010BD157C4A7FB979379EE3
:104DA000B9E5E41C6D4758BFBB49D094EB113113F2
:104DB000F0B504684568060023002A00C6468068EE
:104DC000F16803430A4300B5134304D1FDF7A4F986
:104DD00003000B43FAD023062A0A2F06D218230A0F
:104DE0006940DB194B4098466040070CBC46030401
:104DF00042405A4043460F0467447B403260736030
:104E0000C20E4B019B18C90E40014018B360A10FA0
:104E1000AB00CB18A20012196B41F060D101580E03
:104E2000520EDB014418D518E900630F5918E00051
:104E30000019694180BCB846F0BDC046F0B5DE46F9
:104E400057464E464546E0B5B8498FB007910978B8
:104E5000002900D1E2E00AAB9B46B54BB54C02936A
:104E6000B54BB64D9846102241465846FEF74CF8D1
:104E7000B34B04931B78DBB20593FDF74DF9FFF7B5
:104E80006BFF0A9B5A4658405B465B680A904B4052
:104E90005360AC4B9B69DB0431D5AB4BDA6BE02341
:104EA0001340402B2BD0EFF305839A46A74B27687E
:104EB00099462B00554666689A4638003100002D09
:104EC0001AD1FCF7B5FFEFF3108272B64B461B68A0
:104ED000002BFBD0BFF35F8F2368BB4212D0BFF320
:104EE0005F8F00214B46196082F31088276866683F
:104EF00038003100002DE4D0FDF718F9E3E7FDF7A5
:104F0000B9FAD0E76368B342E9D18E4B1600DF6986
:104F1000FDF702F90A220023801859415546020084
:104F20000B1E02DA01228A4B52420CC42A686B68BB
:104F300092185B41012000920193019B384010437D
:104F4000002428606B60BFF35F8F804A146086F393
:104F500010880199FFF700FF5B469B685A4658404E
:104F60005B46DB6890604B40D360029B794A1B78BC
:104F7000DB009B189868784A90424DD00021FFF7DB
:104F8000EBFE0A9B5A4658405B465B680A904B40D2
:104F90005360EFF3108672B66C4A1368002BFCD096
:104FA000BFF35F8F049B059A1B78934216D05B4634
:104FB0009A6843469B6841465A405B46C968DB682D
:104FC00044464B40414608680A996468484059463F
:104FD00049680A9061400B910C920D935846FFF777
:104FE000E7FE102204000D0040465946FDF78CFFF5
:104FF000049A137801331370BFF35F8F0022534B71
:105000001A6086F31088200029000FB0F0BCBB4660
:10501000B246A946A046F0BD9C60AFE74F4D504C4C
:10502000AC46206861684F4DA246A94600920193A4
:10503000850D8F028602EF1934003D0024184D4182
:10504000A30E9846AB0143440193A3010093009C37
:10505000019D241A8D412000644608CC290002934A
:105060000023A4460393029C039D00196941CC458B
:10507000DED1544603C4FFF76FFE0AAB9B460A9B82
:10508000434099465B465B6808A84B40049300F098
:1050900029F908980999FFF75FFE5B469B68434032
:1050A00005935B46DB684B400693264B9B69DB040C
:1050B00000D4ECE0244BDA6BE0231340402B00D10A
:1050C000E5E0EFF30582402300241E000023924612
:1050D0004F46D846009301941C4D164C00239B4626
:1050E0005346B94602966768266839003000002B9F
:1050F00019D0FDF71BF8EFF3108272B62B68002B66
:10510000FCD0BFF35F8F2368B3422DD0BFF35F8F16
:105110005B462B6082F31088534626686768300030
:105120003900002BE5D1FCF783FEE4E726EA0020F6
:105130001AEA0020F0190020D0000020C000002052
:105140001BEA00200000064000800040300100D033
:10515000FFFFFF7F00000340FFFFFF00001C042053
:10516000C8000020002004206368BB42CED14F4617
:105170009146009A019B10001900801859414B4B31
:10518000029EDA6901231340034300930191FCF767
:10519000C3FF0A2200238018594102000B1E02DAC5
:1051A0000122434B524222606360012E5BD1009882
:1051B00001993B003F4D4F46C3469946B046286093
:1051C0006960BFF35F8F00233B4E336087F3108825
:1051D000FFF7C2FD4B465840049B0A904B40190014
:1051E0005B465960FCF798FFFFF7B6FD059B43400F
:1051F00018005B469860069B4B4019005B46D960DF
:10520000EFF3108772B63368002BFCD0BFF35F8FCB
:10521000079B1B78002B2ED1284BDA681F2A39D028
:105220005A691F2A38D0DA691F2A3BD05B6A1F2BC4
:1052300035D0FDF71FF9FF23FF222149DB000A705B
:10524000204A02919B18052258465A60FFF7B0FD8C
:105250001D4B1022180059469846FDF755FE0123B4
:10526000079A13700BE0BFF35F8F00232B6089F365
:105270001088013E32E7124B0293134B9846BFF35E
:105280005F8F00220C4B1A6087F31088EBE5FDF767
:10529000F1F816E70023984643461A00CDE71C3B79
:1052A0009846F9E702239846F6E7C0460000064014
:1052B000FFFFFF7FC0000020300100D0000003404E
:1052C0001AEA002008000340D000002010B5FFF7C4
:1052D000B5FD10BD10B5024800F00CF810BDC04679
:1052E000C4E8002010B508220149FDF70DFE10BDED
:1052F000C4E8002010B588B004000D2200216846E3
:10530000FDF7FCFD0D22002104A8FDF7F7FD4B235E
:105310006A466846137004A90D2212F0E5F81521BB
:10532000082220006944FDF7EFFD08B010BDC0461B
:1053300010B501F035FC00F05FFB00F083FD00F0DC
:1053400027FE06F0FFFA01F0C1FC00F099F906F023
:1053500067FA10BD40BA80B27047C04600BA7047C5
:10536000F0B5C646664E05003368884600B5002B8A
:1053700003D0327A824200D178E0624F2C01F36888
:10538000002B02D0327DAA4266D0B369002B03D035
:105390002022B25CAA4255D0736A002B03D02C2283
:1053A000B25CAA4228D0002D31D0BB7A022B68D043
:1053B000012D00D16FE08D235B00FB5C022B00D13F
:1053C00075E0022D2CD0504BFB5C022B00D180E00D
:1053D000641924013C19E37B032B0AD84B4D9B0035
:1053E000585906F045FE0022E37B9B005A510423E6
:1053F000E37380BCB846F0BD60190001103041462F
:10540000B26A3818984700237362002DCDD18D23DE
:105410005B00FB5C022B65D03B4BFB5C022B68D036
:105420003B4BFB5C022BD3D163193A4A1B01FB189F
:10543000BA5CDB7B9A42CBD1042263191B01FB18B7
:10544000DA73D6E76019000110304146F269381866
:1054500098470023B3619FE760190001103041466F
:105460003269381898470023F3608EE7040120184A
:10547000244F0001103072683818984700233360B9
:105480007DE763191B01FB18DA7BFB7B9A42D3D0C3
:10549000012D00D08FE71C4BFB5C022BC0D11E4BB3
:1054A000FA5C2023FF33FB5C9A42B9D1C4E7202287
:1054B00063191B01FB18FF32BA5CDB7B9A42BBD03D
:1054C000022DADD0104BFB5C022B02D0032DA7D1D7
:1054D0007EE76319104A1B01FB18BA5CDB7B9A421A
:1054E000F4D1A9E72023FF33FA5CFB7B9A42E9D190
:1054F000A2E7094BFA7BFB5C9A4291D19CE7C0463C
:10550000642B00209C2B00202A020000542B00203A
:105510003A0300003F0300002F020000F0B54546AB
:105520004E46DE465746504BE0B5984687B00301DD
:105530001D18009343462D015C19E37A0600012BE8
:1055400000D98DE0494A9B00D7589346002F00D1DF
:105550007CE010354544280011F0E0FDA022123017
:1055600081B29200362000F003FF8146002860D00F
:1055700003AF0C2200213800FDF7C0FC2089FFF7A3
:10558000E9FE0123BB70FF3338803900BB800C2754
:105590000C22484601F028FA013D01966B786E1CFA
:1055A000320000242E2B06D155E053780134E4B2AA
:1055B0002E2B45D00132002BF7D1931B9BB29A467C
:1055C000150023002A4AFB1893422FDC22003900E1
:1055D000484601F0D7FA7B1C9BB252463100484640
:1055E00001F04EFAE4192B78671CBFB2002BD5D11D
:1055F000002239004846019E01F0C4FA1D4B0234D6
:105600000422029302A9A3B2484601F039FA009B92
:1056100019499B191B014344DA7ADB7B92009B00FA
:1056200058585A443523494606F092FC484601F042
:1056300023F807B0F0BCBB46B246A946A046F0BD71
:10564000551BABB29A46551C2300BBE70021FFF760
:1056500087FEA772EDE70022350000239246B1E7EE
:105660000648FBF7D9FCC0469C2B0020942B002059
:10567000FEFF000000010001542B00205C780110A7
:105680007047C046012800D97047054B80000029AB
:1056900002D00A68C250F7E7024A1268C250F3E724
:1056A000942B002050A40110F8B5404E8D273400F3
:1056B00000257F00A37A022B2CD024D8002B1BD0EE
:1056C000FFF704FEB37A80B2022B3AD0F35D022BCF
:1056D0003DD0374BF35C022B42D0364BF35C022BB0
:1056E00047D002230122A37200232081E372280005
:1056F00022736373FFF712FF01351134EDB2FF34EB
:10570000042DD7D1F8BD032B4CD12368002B12D127
:10571000A372F1E7237B013BDBB22373002BEBD1B8
:10572000637B0133DBB26373042B28D0237328001F
:10573000FFF7F4FEE0E7013B2360002BDCD1A3720E
:10574000DAE733898342BBD0F35D022BC1D1173333
:10575000FF33F35A8342B3D0154BF35C022BBCD119
:105760008A239B00F35A8342AAD0124BF35C022B8C
:10577000B7D1CE239B00F35A8342B2D1A0E7E37A9C
:10578000002B08D10C4A5268002A04D0012263730E
:10579000E2722273CBE700212800FFF7E1FD00232E
:1057A000A372A9E70548FBF737FCC0469C2B0020F5
:1057B0002A0200003A030000942B002074780110A4
:1057C000012213000340F0B59C460C000025104256
:1057D00005D0002926DD0578013C2D020130012C81
:1057E0002CDDA71E0123390099430023861C89194B
:1057F000028802309B188142FAD1600801384000CB
:105800003C1A3018012C14D0EB181A0C1B041B0C7A
:10581000D318180C1B041B0CC0186346002B02D1B4
:1058200080B2F0BD0020030600041B0C000E1843DC
:10583000F6E7FF2102788D431543E5E70023E1E712
:10584000F0B54F46D6464646C0B59246089A8946B8
:1058500011681B680A04120C090C52181904090C6F
:1058600052181B0C9B181A0C1B041B0CD3181F0C72
:105870001B041B0C0400FF18002823D00023012662
:105880009846658960682900FFF79AFFC019070CE0
:105890000004000C3F182E4209D04346FF217340FC
:1058A0003A0698463B0A120C0B401A43170024682C
:1058B000002CE6D14346002B04D03A063F04120CDC
:1058C0003F0E17434846FFF745FD04005046FFF7DB
:1058D00041FD2018C019030C0004000C1B18180C03
:1058E0001B041B0CC018C04380B2E0BCBA46B146D2
:1058F000A846F0BD10B582B0049C0094FFF7A0FF4D
:1059000002B010BD012213000340F0B59C460C000C
:105910000025104205D0002927D00578013C2D0232
:105920000130012C2DDDA71E0123390099430023EE
:10593000861C8919028802309B188142FAD16008BE
:10594000013840003C1A3018012C15D0EB181A0C05
:105950001B041B0CD318180C1B041B0CC01863462B
:10596000002B03D1C04380B2F0BD00200306000429
:105970001B0C000E1843F5E7FF2102788D431543F9
:10598000E4E70023E0E7C046F0B5C646040000B5F2
:1059900000282CD0002300279846012665896068DE
:1059A0002900FFF70DFFC019070C0004000C3F1879
:1059B0002E4209D04346FF2173403A0698463B0ADF
:1059C000120C0B401A4317002468002CE6D1434602
:1059D000002B09D038063B04000C1B0E1843C043B3
:1059E00080B280BCB846F0BDF84380B2F9E7014808
:1059F000F7E7C046FFFF000003220B4B0021934353
:105A00000A4A1971136080220949D2019818086066
:105A100001211A6001710749995007490B60AE21B5
:105A2000064B5A527047C04623A8002018A80020F1
:105A30001CA8002000400040283400202C34002006
:105A4000F8B5DE4657464E464546E0B500286ED0CE
:105A5000830700D07CE00300424A083B126894466A
:105A60009A4200D971E0404A0C301468844200D256
:105A70006BE01A79002A00D170E080221988D201E7
:105A800091420FD85D88AB4695420BD862462F00F5
:105A9000981A80B267448046B946A84205D03A8831
:105AA000824202D03148FBF7B7FA62465518AC4241
:105AB00002D06A884245F5D100221A712C4A166834
:105AC0009246B34201D21E001360B022B02729488B
:105AD000825A521A4244C2539C423CD9AB4215D01E
